:020000040800F2
:10000000E82C002091010008990100089B010008DC
:100010009D0100089F010008A101000800000000E8
:100020000000000000000000000000007104000853
:10003000A50100080000000021040008C105000817
:10004000AB010008AB010008AB010008AB010008E0
:10005000AB010008AB01000839030008AB01000840
:10006000AB010008AB010008AB010008AB010008C0
:10007000AB010008AB010008AB010008AB010008B0
:10008000AB010008AB010008AB010008AB010008A0
:10009000AB010008AB010008AB010008AB01000890
:1000A000AB010008AB010008AB010008AB01000880
:1000B000AB010008AB010008AB010008AB01000870
:1000C000AB010008AB010008AB010008AB01000860
:1000D000AB010008AB010008AB010008AB01000850
:1000E000AB010008AB010008AB01000800F002F80A
:1000F00000F03AF80AA090E8000C82448344AAF188
:100100000107DA4501D100F02FF8AFF2090EBAE885
:100110000F0013F0010F18BFFB1A43F0010318473B
:10012000C0210000E0210000103A24BF78C878C147
:10013000FAD8520724BF30C830C144BF04680C60ED
:10014000704700000023002400250026103A28BF35
:1001500078C1FBD8520728BF30C148BF0B60704739
:100160001FB51FBD10B510BD00F0ACF8114603B4AB
:1001700000F01CFB03BCFFF7F3FF00F019FB00F0DD
:10018000C6F803B4FFF7EEFF03BC00F0CDF80000A3
:100190000948804709480047FEE7FEE7FEE7FEE71B
:1001A000FEE7FEE7FEE7FEE7FEE7FEE70448054957
:1001B000054A064B70470000E1050008ED00000805
:1001C000E8260020E82C0020E8280020E82800206D
:1001D000032A40F2308010F0030C00F0158011F873
:1001E000013BBCF1020F624498BF11F801CB00F84B
:1001F000013B38BF11F8013BA2F1040298BF00F89F
:1002000001CB38BF00F8013B11F0030300F0288058
:10021000083AC0F0088051F8043B083A51F804CB82
:10022000A0E80810F5E7121D5CBF51F8043B40F848
:10023000043BAFF30080D20724BF11F8013B11F853
:1002400001CB48BF11F8012B24BF00F8013B00F897
:1002500001CB48BF00F8012B7047704770477047CB
:1002600010B5203AC0F00B80B1E81850A0E8185043
:10027000B1E81850A0E81850203ABFF4F5AF5FEA93
:10028000027C24BFB1E81850A0E8185044BF18C938
:1002900018C0BDE810405FEA827C24BF51F8043BDF
:1002A00040F8043B08BF7047D20728BF31F8023B33
:1002B00048BF11F8012B28BF20F8023B48BF00F8C7
:1002C000012B7047754600F02BF8AE4605006946D5
:1002D000534620F00700854618B020B5FFF766FFAB
:1002E000BDE820404FF000064FF000074FF0000837
:1002F0004FF0000BAC46ACE8C009ACE8C009ACE874
:10030000C009ACE8C00921F007018D46704710B55F
:100310000446AFF300802046BDE81040FFF731BF30
:10032000004870470800002001491820ABBEFEE7D6
:10033000260002007047000040F21441C4F201019F
:10034000086840F00100086040F20C21C2F2000190
:100350000A7801209043087041F20C01C4F20101B7
:10036000086880F4005008607047000041F21801EE
:10037000C4F20201086840F00400086041F21C0168
:10038000C4F20201086840F00200086040F6000173
:10039000C4F20101086820F04C400860086840F091
:1003A00008400860086820F04C50086040F208419E
:1003B000C4F20001088840F00100088040F21841B2
:1003C000C4F20001088840F2011210430880088836
:1003D00040F0A000088040F22041C4F200010888EB
:1003E00020F02200088040F22841C4F200010020E1
:1003F000088040F22C41C4F200016420088040F2E1
:100400000041C4F20001088840F00100088040F279
:100410002441C4F20001322008807047000000002F
:10042000EFF30980BFF36F8F0D4B1A6820E9F00FCF
:1004300010602DE908404FF0100080F3118800F0A3
:10044000ABFF4FF0000080F31188BDE80840196849
:100450000868B0E8F00F80F30988BFF36F8F70472A
:10046000100200200000000000000000000000005A
:10047000074B19680868B0E8F00F80F30988BFF3EC
:100480006F8F4FF0000080F311884EF00D0E704713
:100490001002002080B500F001F880BD84B000207B
:1004A0000390029041F20001C4F20201086840F496
:1004B00080300860FFE741F20000C4F202000068EB
:1004C00000F400300290039801300390FFE7029996
:1004D0000020019039B9FFE70398B0F5A06018BF7C
:1004E00001200190FFE70198C0070028E3D1FFE752
:1004F00041F20000C4F2020000688003002803D526
:10050000FFE70120029002E000200290FFE702983E
:10051000012851D1FFE742F20001C4F2020108684C
:1005200040F010000860086820F0070008600868C4
:1005300040F00200086041F20401C4F2020100919F
:100540000868086008680860086840F4806008600F
:10055000086820F47C100860086840F4E81008601F
:1005600041F20001C4F20201086840F080700860A6
:10057000FFE741F20000C4F2020000688001002899
:1005800001D4FFE7F5E741F20401C4F20201086873
:1005900020F003000860086840F002000860FFE7F0
:1005A00041F20400C4F20200006800F00C000828C8
:1005B00001D0FFE7F4E700E0FFE704B07047000078
:1005C00080B54EF21000CEF20000006801F068FA2B
:1005D000012803D0FFE700F061FFFFE780BD0000C6
:1005E00080B541F20002C4F20202106840F001003E
:1005F000106041F20401C4F2020108680023CFF642
:10060000FF031840086010684FF6FF73CFF6F663DB
:1006100018401060106820F480201060086820F4F2
:10062000FE00086041F20801C4F202014FF41F000D
:100630000860FFF72FFF4EF60851CEF200014FF091
:100640000060086080BD000081B08DF803009DF956
:10065000030000280ED4FFE79DF9031001F01F02EC
:10066000012090404A094EF20011CEF2000141F8FB
:100670002200FFE701B0704780B582B0019000F022
:1006800031F938B1FFE7019800684FF0FF3101F010
:10069000E9F8FFE702B080BD80B582B00190019813
:1006A000006800F09BFD00200090FFE70098042800
:1006B0001AD8FFE701980068009A40F2F811C2F2D8
:1006C000000151F82210884209D1FFE7009A40F258
:1006D000F811C2F20001002041F8220004E0FFE717
:1006E000009801300090E1E702B080BD80B584B091
:1006F00002900299002008600190FFE70198042809
:100700002BD8FFE7019940F2F810C2F2000050F830
:100710002100E8B9FFE7019800EB800140F2680092
:10072000C2F2000000EB01110120009000F0E8FE91
:1007300002460098019B40F2F811C2F2000141F814
:100740002320019A51F82210029A1160039018E0B8
:10075000FFE7019801300190D0E700F0C3F830B115
:10076000FFE7012000F0B8FE02990860FFE7029859
:10077000006818B9FFE70020039002E00120039011
:10078000FFE7039804B080BD80B582B0019000F00F
:10079000A9F840B1FFE701980068002319461A46FE
:1007A00000F0AAFFFFE702B080BD00007047000024
:1007B00080B584B0002003900620FFF745FFFFF7C7
:1007C000D5FD41F21801C4F20201086840F01000A2
:1007D0000860086840F00400086041F20401C4F2B7
:1007E0000101086820F440000860086840F44010E7
:1007F000086040F60001C4F20101086820F00C0016
:100800000860086840F0080008600821C4F201018F
:10081000086820F00F00086040F20041C4F20101B6
:10082000086840F00100086040F20841C4F201018C
:10083000086840F00100086041F20C01C4F20101B7
:10084000086880F40050086040F22440C4F20000C0
:1008500000880290FFE740F20C20C2F2000000780E
:10086000C007C0BBFFE741F20C01C4F201014FF425
:100870000050086000200190FFE7019840F22441F9
:10088000C4F200010988C1F164018C2251438842FD
:1008900005D2FFE7FFE7019801300190EDE741F253
:1008A0000C01C4F20101086820F400500860002027
:1008B0000090FFE7009840F22441C4F2000109884B
:1008C0008C225143884205D2FFE7FFE700980130B0
:1008D0000090EFE7FFE740F22440C4F200000088F8
:1008E0000290B8E780B582B001F0DAF8022803D1AF
:1008F000FFE70120019002E000200190FFE701984E
:1009000002B080BD80B586B00590049142F2E060EF
:10091000C2F200000068029040F21020C2F2000013
:100920000068043000F074FB08B9FFE700E0FFE75F
:100930000598013018BBFFE7049800B3FFE742F2C7
:10094000CC61C2F2000148680190019A40F2102087
:10095000C2F2000003689A60019A92680368DA6044
:1009600002680432019B9B685A6002680432019B52
:100970009A60006841610868013008603DE00298B3
:10098000059908440390039840F21021C2F2000137
:10099000096848600398029988420ED2FFE740F246
:1009A0001C20C2F20000006840F21021C2F20001D7
:1009B0000968043100F06EFB1EE040F21420C2F220
:1009C0000000006840F21021C2F200010968043101
:1009D00000F060FB039842F29861C2F200010968DE
:1009E000884207D2FFE7039842F29861C2F2000101
:1009F000086000E0FFE7FFE7FFE706B080BD00000A
:100A000080B586B00590049103920020029005986D
:100A1000806B01900598006C78B9FFE70598006835
:100A200048B9FFE70598806801F07AF902900599C6
:100A30000020886000E0FFE741E00398B8B9FFE7D5
:100A4000059A04995068126CFFF7C2FB0599486833
:100A50000A6C10444860059948688968884204D344
:100A6000FFE705990868486000E0FFE726E0059A7F
:100A70000499D068126CFFF7ABFB0599C8680A6C43
:100A8000801AC86005980168C068884206D2FFE7EE
:100A9000059988680A6C801AC86000E0FFE703982F
:100AA000022809D1FFE7019820B1FFE7019801383A
:100AB000019000E0FFE700E0FFE7FFE7FFE70198B4
:100AC000013005998863029806B080BD82B001901C
:100AD0000198406A38B1FFE70198006B0068C0F1E7
:100AE0003800009002E000200090FFE7009802B07C
:100AF0007047000084B04FF40050009040F28060D6
:100B0000C2F2000001909DF80400400788B1FFE7A1
:100B1000019807300190019820F007000190019A98
:100B200040F28061C2F200010098891A08440090E6
:100B3000FFE701980290029942F2C460C2F20000FD
:100B40000160002141600298009A104401900198D0
:100B500008380190019820F007000190019A40F2B6
:100B60001820C2F200000260026851600268116041
:100B7000029903910199039A891A516000680399B7
:100B800008600398406842F29461C2F20001086074
:100B90000398406842F29061C2F20001086042F29C
:100BA0008C61C2F200014FF00040086004B0704751
:100BB00080B582B00190019868B1FFE701980023E9
:100BC0008360019803600198C360019819461A4632
:100BD00000F092FD00E0FFE702B080BD80B584B078
:100BE000DDF818C00390029101928DF8033002984D
:100BF00018B9FFE70698006003E0019806990860BD
:100C0000FFE703980699C863029806990864069856
:100C1000012100F009FD9DF80300069981F84C00C0
:100C200004B080BD83B0029042F2C460C2F2000002
:100C30000190FFE7019800680299884205D2FFE71A
:100C4000FFE7019800680190F4E701980090009890
:100C50000199496808440299884209D1FFE702983E
:100C6000426801994868104448600198029000E089
:100C7000FFE702980090009802994968084401999A
:100C80000968884220D1FFE70198006840F21821E6
:100C9000C2F20001096888420DD0FFE701980068A0
:100CA00042680299486810444860019800680068EA
:100CB0000299086007E040F21820C2F200000068C4
:100CC00002990860FFE704E0019800680299086053
:100CD000FFE701980299884204D0FFE70298019942
:100CE000086000E0FFE703B07047000080B582B005
:100CF000019000F005FA0198806B18B9FFE7012018
:100D0000009002E000200090FFE700F011FA009848
:100D100002B080BD80B582B0019000F0F1F9019879
:100D2000806B0199C96B884203D1FFE701200090D5
:100D300002E000200090FFE700F0FAF9009802B00E
:100D400080BD000040F21420C2F20000006800687C
:100D500040B9FFE742F29861C2F200014FF0FF3064
:100D600008600CE040F21420C2F200000068C06885
:100D7000006842F29861C2F200010860FFE7704724
:100D800080B582B0019000F0BBF9019890F8450061
:100D90008DF80300FFE79DF90300012816DBFFE74C
:100DA0000198406A58B1FFE70198243001F0D4F867
:100DB00018B1FFE700F036FA00E0FFE700E005E0D9
:100DC0009DF8030001388DF80300E4E70199FF2046
:100DD00081F8450000F0ACF900F092F9019890F824
:100DE00044008DF80200FFE79DF90200012816DBA0
:100DF000FFE70198006980B1FFE70198103001F02A
:100E0000ABF818B1FFE700F00DFA00E0FFE79DF83E
:100E1000020001388DF8020000E000E0E4E70199EB
:100E2000FF2081F8440000F083F902B080BD00008B
:100E300080B586B005900020019000F0A5FA40F240
:100E40001820C2F20000006818B9FFE7FFF752FE51
:100E500000E0FFE7059842F28C61C2F200010968E8
:100E6000084240F0B880FFE7059808B3FFE705990E
:100E700001F1080088421BD9FFE70598083005906A
:100E80009DF81400400788B1FFE7059921F007009D
:100E90000830884206D9FFE7059820F0070008309F
:100EA000059002E000200590FFE700E0FFE702E088
:100EB00000200590FFE70598002800F08A80FFE7F2
:100EC000059842F29061C2F200010968884200F27E
:100ED0008080FFE742F2C460C2F200000390006825
:100EE0000490FFE704984168059A00209142009021
:100EF00007D2FFE704980068002818BF012000907F
:100F0000FFE70098C00730B1FFE70498039004980A
:100F100000680490E6E7049840F21821C2F200014C
:100F20000968884253D0FFE70398006808300190B1
:100F30000498006803990860049840680599401A6D
:100F4000112811D3FFE704980599084402900498EA
:100F500040680599401A02994860059804994860CC
:100F60000298FFF75FFE00E0FFE70498426842F254
:100F70009060C2F200000168891A0160006842F2C4
:100F80009461C2F20001096888420BD2FFE742F285
:100F90009060C2F20000006842F29461C2F2000167
:100FA000086000E0FFE742F28C60C2F200000268D5
:100FB000049948681043486004990020086042F290
:100FC000A061C2F2000108680130086000E0FFE79C
:100FD00000E0FFE700E0FFE701F07CF8019806B0D1
:100FE00080BD000040F21020C2F20000006848B14D
:100FF000FFE740F21020C2F200000168086D0130E6
:101000000865FFE740F21020C2F200000068704758
:1010100082B0019001980069009001984168806851
:10102000886001994868896848600098406801991B
:10103000884205D1FFE7019880680099486000E088
:10104000FFE70199002008610099086801380860ED
:101050000098006802B0704782B00190009102B021
:101060007047000081B00090009901F108004860CD
:1010700000994FF0FF308860009901F10800C860C6
:10108000009901F10800086100990020086001B092
:101090007047000084B003900291029800680090AD
:1010A0000098013020B9FFE703980069019010E033
:1010B000039808300190FFE70198406800680099A4
:1010C000884205D8FFE7FFE7019840680190F3E701
:1010D000FFE701984068029948600298416888607B
:1010E00001980299886002980199486003980299D2
:1010F0000861039908680130086004B07047000077
:1011000081B04FF0100080F31188BFF36F8FBFF3F1
:101110004F8F009040F20000C2F2000001680131E0
:1011200001600068012801D1FFE7FFE701B07047C7
:1011300081B040F20000C2F2000001680139016094
:10114000006830B9FFE700200090009880F3118814
:10115000FFE701B07047000080B584B003900398AA
:1011600002900398C0B3FFE70298083802900298F3
:1011700001900198406842F28C61C2F20001096856
:10118000084227D0FFE70198006808BBFFE742F25A
:101190008C60C2F200000268019948689043486080
:1011A00000F0F2F80198426842F29061C2F2000148
:1011B0000868104408600198FFF734FD42F2A4610A
:1011C000C2F2000108680130086000F083FF00E00F
:1011D000FFE700E0FFE7FFE704B080BD80B582B025
:1011E000019001980090009890F8460020B9FFE720
:1011F0000098FFF7B1FF00E0FFE702B080BD0000FC
:1012000081B0009042F29C60C2F200000068009938
:10121000086042F2E060C2F2000000680099486095
:1012200001B0704742F2E461C2F20001012008609F
:101230007047000080B582B001900091019840F2A3
:101240001021C2F2000109681831FFF723FF00984E
:101250000121FFF757FB02B080BD000080B588B0C8
:1012600007900691079805900120029007980028A2
:1012700000F08780FFE70598C06C0699884203D28A
:10128000FFE70698039003E00598C06C0390FFE722
:101290000598C06A0399884271D0FFE70598006DF0
:1012A00001286AD1FFE70598C06A04900398059960
:1012B000C8620598C07E0006002806D4FFE70398A0
:1012C000C0F138000599886100E0FFE705984069A2
:1012D000049901EB810240F22021C2F2000101EBEE
:1012E0008201884247D1FFE705980430FFF790FE5E
:1012F00008B9FFE700E0FFE70598C06A42F288619D
:10130000C2F200010968884208D9FFE70598C06A5F
:1013100042F28861C2F200010860FFE70598C06AE6
:1013200000EB800040F22021C2F2000101EB8000BE
:10133000406801900198059A906001988068059A2C
:10134000D06005980430019A926850600598043086
:10135000019A9060059AD06A00EB800001EB800052
:1013600050610598C06A00EB800251F822000130FC
:1013700041F8220000E0FFE700E0FFE700E0FFE7C0
:1013800000E0FFE708B080BD42F28461C2F20001D4
:10139000086801300860704780B584B042F284600C
:1013A000C2F20000006838B1FFE742F2E461C2F225
:1013B0000001012008606FE042F2E461C2F2000126
:1013C0000020086040F21020C2F200000068006BAC
:1013D00003904FF0A530029003980068B0F1A53F4C
:1013E00012D1FFE703984068B0F1A53F0CD1FFE7A9
:1013F00003988068B0F1A53F06D1FFE70398C06865
:10140000B0F1A53F0AD0FFE740F21021C2F200017F
:10141000086809683431FFF71FFEFFE742F2886071
:10142000C2F2000000680190FFE7019800EB800124
:1014300040F22020C2F2000050F8210020B9FFE75E
:10144000019801380190F0E7019800EB800140F22B
:101450002020C2F2000000EB810000900099486853
:1014600040684860009948680831884205D1FFE724
:101470000099486840684860FFE700984068C06885
:1014800040F21021C2F200010860019842F2886126
:10149000C2F200010860FFE704B080BD80B582B0F1
:1014A0004FF0100080F31188BFF36F8FBFF34F8FA1
:1014B000009000F011FB40B1FFE74EF60451CEF270
:1014C00000014FF080500860FFE700200190019874
:1014D00080F3118802B080BD80B584B08DF80F0014
:1014E00001200190002100919DF80F2000F022F8CA
:1014F00002900298FFF75CFB029804B080BD0000E8
:1015000080B586B08DF8170004910120029000226A
:1015100001929DF81710049BEC46CCF80010114680
:1015200000F04CF803900398FFF742FB039806B0D5
:1015300080BD000080B588B0079006918DF8172017
:10154000002004900798A0B3FFE707994FF0FF3001
:10155000B0FBF1F0069988422BD3FFE70798069974
:10156000484310F1510F24D8FFE7079806994843E4
:10157000039003985030FFF75BFC04900498B0B1DF
:10158000FFE70498029002985030029004990020DE
:1015900081F8460007980699029A9DF81730DDF801
:1015A00010C0EE46CEF800C0FFF718FB00E0FFE7E2
:1015B00000E0FFE7049808B080BD000080B588B067
:1015C00084460A98CDF81CC00691059204938DF8C4
:1015D0000F0000200290079810B3FFE70498F8B1BD
:1015E000FFE7059818B1FFE70698C8B1FFE705982F
:1015F00018B9FFE7069898B9FFE704980290029996
:10160000012081F8460007980699059A9DF80F3049
:10161000DDF808C0EE46CEF800C0FFF7DFFA00E0C4
:10162000FFE7029808B080BD80B584B003900291B6
:1016300001200190039800900098002856D0FFE701
:101640000098C06B002851D0FFE70098C26B016C76
:101650004FF0FF30B0FBF2F0884247D3FFE7FFF7CF
:101660004FFD00990B68C86B0A6C00FB0230886064
:1016700000990020886300990868486000990B6809
:10168000C86B0A6C013800FB0230C8600099FF206B
:1016900081F84400009981F845000298D0B9FFE72D
:1016A00000980069A0B1FFE70098103000F054FCEA
:1016B00060B1FFE74EF60451CEF200014FF08050CA
:1016C0000860BFF34F8FBFF36F8F00E0FFE700E0CC
:1016D000FFE708E000981030FFF7C4FC00982430C2
:1016E000FFF7C0FCFFE7FFF723FD02E000200190B9
:1016F000FFE7019804B080BD80B58AB008900791DB
:10170000069205930020049008980090FFE7FFF7E9
:10171000F7FC0098806B0099C96B884204D3FFE7FF
:101720000598022834D1FFE700980799059AFFF73A
:1017300067F903900098406AA0B1FFE70098243051
:1017400000F00AFC60B1FFE74EF60451CEF2000152
:101750004FF080500860BFF34F8FBFF36F8F00E0F2
:10176000FFE710E0039860B1FFE74EF60451CEF2B8
:1017700000014FF080500860BFF34F8FBFF36F8FB1
:1017800000E0FFE7FFE7FFF7D3FC0120099065E0E9
:10179000069828B9FFE7FFF7CBFC002009905DE031
:1017A000049830B9FFE701A8FFF72AFD0120049053
:1017B00000E0FFE7FFE7FFE7FFF7BAFCFFF7E4FD14
:1017C000FFF79EFC009890F94400013028B9FFE72C
:1017D0000099002081F84400FFE7009890F9450047
:1017E000013028B9FFE70099002081F84500FFE7A4
:1017F000FFF79EFC01A806A900F004F928BBFFE74B
:101800000098FFF787FAC8B1FFE7009810300699F3
:10181000FFF710FD0098FFF7B3FA00F05BFC60B92A
:10182000FFE74EF60451CEF200014FF08050086001
:10183000BFF34F8FBFF36F8FFFE705E00098FFF70F
:101840009FFA00F047FCFFE707E00098FFF798FADF
:1018500000F040FC0020099000E058E709980AB029
:1018600080BD000080B58AB00890079100200690E6
:10187000089903910290FFE7FFF742FC0398806B01
:101880000190019860B3FFE70198013803998863DC
:101890000398006828B9FFE7FFF7A4FB0399886065
:1018A00000E0FFE703980069A0B1FFE7039810305C
:1018B00000F052FB60B1FFE74EF60451CEF200019A
:1018C0004FF080500860BFF34F8FBFF36F8F00E081
:1018D000FFE700E0FFE7FFF72BFC012009908DE018
:1018E000079828B9FFE7FFF723FC0020099085E05F
:1018F000069830B9FFE704A8FFF782FC01200690A4
:1019000000E0FFE7FFE7FFE7FFF712FCFFF73CFD12
:10191000FFF7F6FB039890F94400013028B9FFE780
:101920000399002081F84400FFE7039890F94500EF
:10193000013028B9FFE70399002081F84500FFE74F
:10194000FFF7F6FB04A807A900F05CF8A8BBFFE7C7
:101950000398FFF7CBF948B3FFE70398006850B945
:10196000FFE7FFF7CDFB0398806800F04DFA029087
:10197000FFF7DEFB00E0FFE7039824300799FFF74D
:1019800059FC0398FFF7FCF900F0A4FB60B9FFE7EE
:101990004EF60451CEF200014FF080500860BFF3C4
:1019A0004F8FBFF36F8F00E0FFE705E00398FFF76D
:1019B000E7F900F08FFBFFE71FE00398FFF7E0F97E
:1019C00000F088FB0398FFF791F9A0B1FFE70298B8
:1019D00070B1FFE7FFF794FB0398FFF777F80090EB
:1019E000039880680099FFF739FCFFF7A1FBFFE738
:1019F0000020099002E0FFE7FFE73DE709980AB001
:101A000080BD000080B586B005900491FFF778FB9B
:101A100042F2E060C2F2000000680290029805996C
:101A20004968401A019004980068013018B9FFE72E
:101A3000002003902EE042F29C60C2F20000006899
:101A40000599096888420CD0FFE702980599496812
:101A5000884206D3FFE70120039004990020086024
:101A600017E001980499096888420BD2FFE7019AB0
:101A700004990868801A08600598FFF7C1FB0020E8
:101A8000039005E004990020086001200390FFE71F
:101A9000FFE7FFE7FFF74CFB039806B080BD0000AF
:101AA00081B042F2C060C2F20000006818B9FFE7DE
:101AB000012000900DE042F28460C2F20000006854
:101AC00018B9FFE70220009002E000200090FFE735
:101AD000FFE7009801B0704780B588B000200590FE
:101AE00042F28460C2F200000068002840F00C81DD
:101AF000FFE742F2E061C2F20001086801300490A1
:101B0000049808600498C0B9FFE740F21422C2F2BA
:101B100000021068039040F21C21C2F20001086824
:101B200010600398086042F29C61C2F200010868EC
:101B300001300860FFF706F900E0FFE7049842F281
:101B40009861C2F2000109688842C0F0BC80FFE7DA
:101B5000FFE740F21420C2F200000068006840B9BC
:101B6000FFE742F29861C2F200014FF0FF300860D7
:101B7000A8E040F21420C2F200000068C068C0680B
:101B8000079007984068069004980699884207D203
:101B9000FFE7069842F29861C2F20001086091E006
:101BA000FFE707984069029007988168C0688860DD
:101BB00007998868C96848600298406807990431A5
:101BC000884205D1FFE70798C06802994860FFE79F
:101BD0000799002048610299086801380860079851
:101BE000806AF8B1FFE70798806A01900798C16999
:101BF000006A88600799C869096A48600198406866
:101C000007991831884205D1FFE70798006A0199C2
:101C10004860FFE707990020886201990868013849
:101C2000086000E0FFE70798C06A42F28861C2F2EC
:101C300000010968884208D9FFE70798C06A42F2A4
:101C40008861C2F200010860FFE70798C06A00EBF4
:101C5000800040F22021C2F2000101EB80004068C8
:101C600000900098079A906000988068079AD0606A
:101C700007980430009A9268506007980430009AE0
:101C80009060079AD06A00EB800001EB8000506101
:101C90000798C06A00EB800251F82200013041F839
:101CA00022000798C06A40F21021C2F200010968C0
:101CB000C96A884203D3FFE70120059000E0FFE7EF
:101CC000FFE746E7FFE740F21020C2F2000000689D
:101CD000C06A00EB800140F22020C2F2000050F800
:101CE0002100022803D3FFE70120059000E0FFE771
:101CF00042F2E460C2F20000006818B1FFE7012080
:101D0000059000E0FFE707E042F2A861C2F200019F
:101D1000086801300860FFE7059808B080BD000042
:101D200080B584B00390039802900020019003983E
:101D3000002864D0FFE70299086D01380865029910
:101D4000C86AC96C884258D0FFE70298006D002825
:101D500051D1FFE702980430FFF75AF908B9FFE7BD
:101D600000E0FFE70299C86CC8620299C86AC0F136
:101D7000380088610298C06A42F28861C2F20001AC
:101D80000968884208D9FFE70298C06A42F2886170
:101D9000C2F200010860FFE70298C06A00EB800011
:101DA00040F22021C2F2000101EB80004068009067
:101DB0000098029A906000988068029AD060029819
:101DC0000430009A9268506002980430009A906043
:101DD000029AD06A00EB800001EB8000506102980B
:101DE000C06A00EB800251F82200013041F8220065
:101DF0000120019000E0FFE700E0FFE700E0FFE7DF
:101E0000019804B080BD000080B584B003900398B1
:101E10000290002001900398002800F09880FFE7CE
:101E20000298C06A40F21021C2F200010968C96A32
:101E300088427BD2FFE70298C07E000600280BD4C0
:101E4000FFE740F21020C2F200000068C06AC0F153
:101E500038000299886100E0FFE702994869C96A81
:101E600001EB810240F22021C2F2000101EB82016C
:101E700088424FD1FFE702980430FFF7C9F808B94C
:101E8000FFE700E0FFE740F21020C2F20000006828
:101E9000C06A0299C8620298C06A42F28861C2F2BE
:101EA00000010968884208D9FFE70298C06A42F237
:101EB0008861C2F200010860FFE70298C06A00EB87
:101EC000800040F22021C2F2000101EB8000406856
:101ED00000900098029A906000988068029AD06002
:101EE00002980430009A9268506002980430009A78
:101EF0009060029AD06A00EB800001EB8000506194
:101F00000298C06A00EB800251F82200013041F8CB
:101F1000220008E040F21020C2F200000068C06A0F
:101F20000299C862FFE7012001900FE00298C06C9F
:101F300040F21021C2F200010968C96A884203D246
:101F4000FFE70120019000E0FFE7FFE700E0FFE787
:101F5000019804B080BD000087B006900698C06864
:101F6000C06805900598806A03900598C169006A69
:101F700088600599C869096A4860039840680599AE
:101F80001831884205D1FFE70598006A0399486037
:101F9000FFE7059900208862039908680138086006
:101FA00042F28460C2F20000006800285DD1FFE7C1
:101FB00005984069029005988168C0688860059915
:101FC0008868C96848600298406805990431884269
:101FD00005D1FFE70598C06802994860FFE70599B9
:101FE0000020486102990868013808600598C06AB5
:101FF00042F28861C2F200010968884208D9FFE70D
:102000000598C06A42F28861C2F200010860FFE7E9
:102010000598C06A00EB800040F22021C2F2000166
:1020200001EB8000406801900198059A906001984A
:102030008068059AD06005980430019A92685060D3
:1020400005980430019A9060059AD06A00EB8000F0
:1020500001EB800050610598C06A00EB800251F8E6
:102060002200013041F822001BE042F2AC61C2F2D2
:102070000001486800900098059AD0610098806837
:10208000059A106205981830009A92685060059879
:102090001830009A906005988162086801300860E5
:1020A000FFE70598C06A40F21021C2F200010968FA
:1020B000C96A884208D9FFE70120049042F2E4612E
:1020C000C2F20001086002E000200490FFE70498DB
:1020D00007B0704780B586B0002005900490FFF7E8
:1020E0000FF842F28460C2F2000001680139016019
:1020F0000068002840F0ED80FFE742F28060C2F205
:1021000000000068002800F0E380FFE7FFE742F2EC
:10211000AC60C2F200000068002800F09680FFE783
:1021200042F2AC60C2F20000C068C0680590059839
:10213000806A03900598C169006A88600599C8693A
:10214000096A48600398406805991831884205D1AA
:10215000FFE70598006A03994860FFE705990020AA
:102160008862039908680138086005984069029000
:1021700005988168C068886005998868C968486062
:102180000298406805990431884205D1FFE7059817
:10219000C06802994860FFE70599002048610299EC
:1021A0000868013808600598C06A42F28861C2F286
:1021B00000010968884208D9FFE70598C06A42F221
:1021C0008861C2F200010860FFE70598C06A00EB71
:1021D000800040F22021C2F2000101EB8000406843
:1021E00001900198059A906001988068059AD060E6
:1021F00005980430019A9268506005980430019A5D
:102200009060059AD06A00EB800001EB800050617D
:102210000598C06A00EB800251F82200013041F8B5
:1022200022000598C06A40F21021C2F2000109683C
:10223000C96A884207D3FFE742F2E461C2F20001B3
:102240000120086000E0FFE761E7059818B1FFE7AB
:10225000FEF778FDFFE742F2A860C2F200000068D6
:1022600000900098E0B1FFE7FFE7FFF735FC38B1D9
:10227000FFE742F2E461C2F200010120086000E0E1
:10228000FFE7009801380090FFE700980028ECD1A4
:10229000FFE742F2A861C2F200010020086000E0FE
:1022A000FFE742F2E460C2F20000006870B1FFE7AD
:1022B000012004904EF60451CEF200014FF0805000
:1022C0000860BFF34F8FBFF36F8F00E0FFE7FFE7BA
:1022D00000E0FFE7FEF72CFF049806B080BD000089
:1022E000002300080000002008000000280100086A
:1022F0000823000808000020E02C0000440100082A
:08230000AAAAAAAA000000002D
:04000005080000ED02
:00000001FF
